:020000040800F2
:1000000000000120690F0008150500081705000809
:10001000190500081B0500081D0500080000000068
:100020000000000000000000000000001F050008A4
:100030002105000800000000230500082505000830
:10004000B10F0008B10F0008B10F0008B10F000890
:10005000B10F0008B10F0008B10F0008B10F000880
:10006000B10F0008B10F0008B10F0008B10F000870
:10007000B10F0008B10F0008B10F0008B10F000860
:10008000B10F0008B10F0008B10F0008B10F000850
:10009000B10F0008B10F0008B10F0008B10F000840
:1000A000B10F0008B10F0008B10F0008B10F000830
:1000B000B10F0008B10F0008B10F0008B10F000820
:1000C000B10F0008B10F0008B10F0008B10F000810
:1000D000B10F0008B10F0008B10F0008B10F000800
:1000E000B10F0008B10F0008B10F0008B10F0008F0
:1000F000B10F0008B10F0008B10F0008B10F0008E0
:10010000B10F0008B10F0008B10F0008B10F0008CF
:10011000B10F0008B10F0008B10F0008B10F0008BF
:10012000B10F0008B10F0008B10F0008B10F0008AF
:1001300000000000000000000000000000000000BF
:1001400000000000000000000000000000000000AF
:10015000000000000000000000000000000000009F
:10016000000000000000000000000000000000008F
:10017000000000000000000000000000000000007F
:10018000000000000000000000000000000000006F
:10019000000000000000000000000000000000005F
:1001A000000000000000000000000000000000004F
:1001B000000000000000000000000000000000003F
:1001C000000000000000000000000000000000002F
:1001D000000000000000000000000000000000001F
:0401E0005FF8E0F1F3
:1001E40010B5054C237833B9044B13B10448AFF36D
:1001F40000800123237010BD3C0400200000000097
:10020400DC10000808B5034B1BB103490348AFF3E6
:10021400008008BD0000000040040020DC1000083D
:100224002DE9F04389B000240494059406940794BE
:10023400294B9A6942F040029A619A6902F040029D
:100244000192019A9A6942F004029A619A6902F051
:1002540004020292029A9A6942F008029A619B6926
:1002640003F008030393039B1C4E224620213046CF
:1002740000F039FB1A4F22462021384600F033FBA8
:100284001C2304930594069404A9304600F008FA4C
:100294004FF02009CDF810900125059506944FF0F4
:1002A4000208CDF81C8004A9304600F0F9F9049541
:1002B4000594069404A90B4800F0F2F9CDF81090C7
:1002C40005950694CDF81C8004A9384600F0E8F999
:1002D40009B0BDE8F08300BF0010024000180140DF
:1002E400000C01400008014008B50748074B0360B3
:1002F4000023436040F6FF73836000F003FB00B902
:1003040008BD00F0E1F8FBE758040020003000408D
:1003140008B5012819D0324B1B7833B3102131486A
:1003240000F0DAFA20B108212E4800F0D5FA80B99D
:100334000A2000F045F92A4B00221A70102129489E
:1003440000F0CAFAC8B9012016E0254B01221A7040
:10035400E1E70421234800F0BFFA0028E8D0012196
:10036400214800F0B9FA0128E2D010211D4800F01C
:10037400B3FA012813D0002008BD0821194800F061
:10038400ABFA28B30421174800F0A6FA10B30121F0
:10039400154800F0A1FA01281ED00020ECE708213E
:1003A400104800F099FA012801D00020E4E7042164
:1003B4000C4800F091FA012801D00020DCE701216B
:1003C400094800F089FA48B9054B01221A70D3E7AD
:1003D4000220D1E70320CFE70420CDE70020CBE7BC
:1003E40000000020001801400008014030B591B021
:1003F400002409940B9401940294039404940594A6
:10040400092306934FF480330793089401220A9238
:100414000C9202250D950E934FF4E0130F9306A84A
:1004240000F0ACFA0F230193029503944FF4806318
:1004340004930594294601A800F0DEFC11B030BDF8
:1004440008B500F099F8FFF7D1FFFFF7E9FEFFF7D1
:100454004BFF012220211A4800F045FA00222021F6
:10046400184800F040FA06E02021164800F041FA4E
:100474000A2000F0A5F80020FFF74AFF01380328FE
:10048400F6D801A353F820F0B1040008A70400082B
:100494009D0400086D0400082021094800F029FA91
:1004A400E6E72021074800F024FAE1E72021044888
:1004B40000F01FFA2021034800F01BFAD8E700BF20
:1004C400000C0140001801407047000082B00E4B40
:1004D4009A6942F001029A619A6902F0010200925B
:1004E400009ADA6942F08052DA61DB6903F08053E2
:1004F4000193019B054A536823F0E06343F00073C2
:10050400536002B0704700BF001002400000014079
:100514007047FEE7FEE7FEE7FEE770477047704767
:1005240008B500F03BF808BD7047000010B504465C
:100534000E4B18784FF47A73B3FBF0F30C4A10683F
:10054400B0FBF3F000F096F868B90F2C01D9012044
:100554000AE0002221464FF0FF3000F057F8054B27
:100564001C60002000E0012010BD00BF0800002036
:10057400040000200C00002008B5074A136843F06B
:1005840010031360032000F02FF80020FFF7CEFFC4
:10059400FFF79CFF002008BD00200240034A1168B9
:1005A400034B1B780B441360704700BF64040020A6
:1005B40008000020014B1868704700BF6404002045
:1005C40038B50446FFF7F6FF0546B4F1FF3F02D005
:1005D400044B1B781C44FFF7EDFF401BA042FAD3E9
:1005E40038BD00BF08000020074AD36823F4E06345
:1005F4001B041B0C000200F4E060034343F0BF63E0
:1006040043F40033D360704700ED00E030B4174B7F
:10061400DB68C3F30223C3F10704042C28BF0424BA
:100624001D1D062D18D9033B4FF0FF3505FA04F4C0
:1006340021EA0401994005FA03F322EA030319436A
:1006440000280BDB0901C9B200F1604000F56140EC
:1006540080F8001330BC70470023E5E700F00F007A
:100664000901C9B2024B1954F4E700BF00ED00E0E0
:1006740014ED00E00138B0F1807F0AD2064B5860D7
:10068400064AF02182F823100020986007221A609D
:1006940070470120704700BF10E000E000ED00E06B
:1006A400F0B482B000252C46ABE0854FBB4210D09D
:1006B40007D9844FBB420CD007F58037BB4208D022
:1006C40013E0A7F58017BB4203D007F57027BB42A0
:1006D40007D18B68002B60D0012B59D042610825CB
:1006E40003E0A7F58017BB42F3D0FF2E57D884460A
:1006F400FF2E57D8A200DCF800300F27974023EADA
:10070400070305FA02F21343CCF800304B6813F0E8
:10071400805F75D06C4B9A6942F001029A619B69C3
:1007240003F001030193019BA208971C674B53F844
:1007340027C004F003039F000F23BB402CEA030CE3
:10074400634B984234D003F58063984200F0948060
:1007540003F58063984200F0918003F5806398422A
:1007640000F08E8003F58063984200F08B8003F5DF
:10077400806398421AD006231BE0CD68B5E7CD68A4
:100784000435B2E7CD680835AFE7CD680C35ACE782
:1007940002610825A9E70025A7E70425A5E700F1DC
:1007A400040CA5E7A4F108029200A4E7052300E0E5
:1007B4000023BB4043EA0C030232444F47F8223083
:1007C4004B6813F4803F5FD0424A1368334313608D
:1007D4004B6813F4003F5DD03E4A53683343536083
:1007E4004B6813F4801F5BD03A4A93683343936099
:1007F4004B6813F4001F59D0364AD3681E43D660A1
:1008040001340B6833FA04F256D00122A24003EA01
:10081400020632EA0303F3D14B68122B3FF645AFCD
:10082400122B3FF662AF01A757F823F0D706000852
:100834007F070008890700089B070008EF060008E7
:10084400EF060008EF060008EF060008EF060008B0
:10085400EF060008EF060008EF060008EF060008A0
:10086400EF060008EF060008EF060008EF06000890
:10087400830700088F07000801239AE7022398E7FB
:10088400032396E7042394E7124A136823EA060332
:1008940013609DE70F4A536823EA060353609FE7FA
:1008A4000C4A936823EA06039360A1E7094AD368D4
:1008B40023EA0606D660A3E702B0F0BC704700BF87
:1008C400000022100000311000100240000001401E
:1008D40000080140000401408368194201D001204E
:1008E4007047002070470AB1016170470904016133
:1008F4007047C36801EA030221EA030141EA0241A5
:100904000161704708B338B5044603684CF6CC421D
:100914001A60036845F255521A60036842685A60C7
:10092400036882689A60FFF745FE05462368DA6823
:1009340032B1FFF73FFE401B2628F7D9032003E01E
:100944004AF6AA221A60002038BD01207047000030
:1009540082B0084B1B68084AA2FB03235B0A00FB16
:1009640003F3019300BF019B5A1E0192002BF9D19E
:1009740002B0704704000020D34D6210002800F03C
:10098400F18170B582B00446036813F0010F2CD0D6
:10099400AA4B5B6803F00C03042B1DD0A74B5B68C8
:1009A40003F00C03082B12D06368B3F5803F41D0E9
:1009B400002B55D103F1804303F504331A6822F464
:1009C40080321A601A6822F480221A6037E09B4B46
:1009D4005B6813F4803FE7D0984B1B6813F4003F27
:1009E40003D06368002B00F0BF81236813F0020F6B
:1009F40075D0924B5B6813F00C0F5FD08F4B5B6824
:100A040003F00C03082B54D02369002B00F08980D9
:100A14008B4B01221A60FFF7CDFD0546874B1B68FF
:100A240013F0020F74D1FFF7C5FD401B0228F5D95E
:100A340003209EE1814A136843F4803313606368A2
:100A440043B3FFF7B7FD05467C4B1B6813F4003F27
:100A5400CBD1FFF7AFFD401B6428F5D9032088E113
:100A6400B3F5A02F09D0754B1A6822F480321A60AE
:100A74001A6822F480221A60E1E703F18043A3F5A7
:100A84003C331A6842F480221A601A6842F48032B5
:100A94001A60D4E7FFF78EFD0546684B1B6813F414
:100AA400003FA2D0FFF786FD401B6428F5D9032040
:100AB4005FE1624B5B6813F4803FA5D15F4B1B6819
:100AC40013F0020F03D02369012B40F04F815B4ADE
:100AD400136823F0F803616943EAC10313602368D0
:100AE40013F0080F32D0A369002B45D0554B0122D7
:100AF4001A60FFF75FFD0546504B5B6A13F0020F67
:100B040021D1FFF757FD401B0228F5D9032030E11E
:100B14004A4A136823F0F803616943EAC103136086
:100B2400DDE7474B00221A60FFF744FD0546434BBF
:100B34001B6813F0020FD2D0FFF73CFD401B0228C4
:100B4400F5D9032015E10120FFF702FF236813F014
:100B5400040F00F09780394BDB6913F0805F1DD1DF
:100B6400364BDA6942F08052DA61DB6903F0805374
:100B74000193019B012512E0324B00221A60FFF71A
:100B840019FD05462D4B5B6A13F0020FDED0FFF70B
:100B940011FD401B0228F5D90320EAE000252A4B69
:100BA4001B6813F4807F11D0E368012B22D0002B43
:100BB40038D103F1804303F504331A6A22F00102A9
:100BC4001A621A6A22F004021A6218E01E4A1368B2
:100BD40043F480731360FFF7EDFC06461A4B1B6861
:100BE40013F4807FE0D1FFF7E5FC801B6428F5D97E
:100BF4000320BEE0114A136A43F001031362E36861
:100C040073B3FFF7D7FC06460C4B1B6A13F0020FB5
:100C140037D1FFF7CFFC801B41F288339842F3D9D8
:100C24000320A6E0052B11D0044B1A6A22F001021E
:100C34001A621A6A22F004021A62E0E70010024003
:100C44000000424280044242007000404D4B1A6A48
:100C540042F004021A621A6A42F001021A62CEE7F2
:100C6400FFF7A8FC0646474B1B6A13F0020F08D097
:100C7400FFF7A0FC801B41F288339842F3D903208C
:100C840077E0E5B9E369002B72D03E4A526802F07E
:100C94000C02082A56D0022B17D03B4B00221A60B4
:100CA400FFF788FC0446374B1B6813F0007F47D0DE
:100CB400FFF780FC001B0228F5D9032059E0314AD4
:100CC400D36923F08053D361DCE72F4B00221A60F1
:100CD400FFF770FC05462B4B1B6813F0007F06D012
:100CE400FFF768FC401B0228F5D9032041E0236A82
:100CF400B3F5803F1AD023494B6823F47413226A56
:100D0400606A024313434B601F4B01221A60FFF7D2
:100D140051FC04461B4B1B6813F0007F0ED1FFF7F8
:100D240049FC001B0228F5D9032022E0154A536828
:100D340023F40033A1680B435360DCE7002018E080
:100D4400002016E0012B16D00E4B5B6803F48031B3
:100D5400226A914211D103F47013626A93420ED154
:100D6400002006E001207047012002E0012000E09D
:100D7400002002B070BD0120FBE70120F9E701204B
:100D8400F7E700BF001002406000424286B0164BF5
:100D94000FCB0DF1180C0CE90F0040F20123ADF854
:100DA4000430124B5B6803F00C02082A02D010488E
:100DB40006B07047C3F38342624412F8102C13F454
:100DC400803F0CD0094B5B68C3F34043634413F882
:100DD400143C074800FB02F0B0FBF3F0E8E70548D9
:100DE40000FB02F0E4E700BF041100080010024019
:100DF40000127A0000093D00002800F0A08070B5C0
:100E04000D460446524B1B6803F007038B420BD27A
:100E14004F4A136823F007030B431360136803F06E
:100E240007038B4240F08D80236813F0020F17D024
:100E340013F0040F04D0474A536843F4E06353604B
:100E4400236813F0080F04D0424A536843F46053F4
:100E54005360404A536823F0F003A1680B43536086
:100E6400236813F0010F31D06368012B20D0022BCB
:100E740025D0384A126812F0020F64D035494A6806
:100E840022F0030213434B60FFF794FB0646314BF9
:100E94005B6803F00C036268B3EB820F16D0FFF7B4
:100EA40089FB801B41F288339842F0D9032045E046
:100EB400284A126812F4003FE0D101203EE0254A9E
:100EC400126812F0007FD9D1012037E0204B1B6853
:100ED40003F00703AB420AD91D4A136823F0070342
:100EE4002B431360136803F00703AB422DD123682F
:100EF40013F0040F06D0174A536823F4E063E16843
:100F04000B435360236813F0080F07D0114A53684A
:100F140023F46053216943EAC1035360FFF736FFAA
:100F24000C4B5B68C3F303130B4AD35CD8400B4BE5
:100F340018600B4B1868FFF7F9FA002070BD012008
:100F440070470120FAE70120F8E70120F6E700BF27
:100F54000020024000100240F410000804000020A9
:100F64000C000020002103E00B4B5B58435004317C
:100F74000A480B4B42189A42F6D30A4A02E000236D
:100F840042F8043B084B9A42F9D3FFF7CDFA00F03C
:100F94000FF8FFF755FA70472811000800000020E9
:100FA4003C0400203C0400208C040020FEE70000E8
:100FB40070B50D4E0D4D761BB61006D0002455F8B5
:100FC400043B01349847A642F9D1094E094D00F07B
:100FD40083F8761BB61006D0002455F8043B013480
:100FE4009847A642F9D170BD1C1100081C110008D5
:100FF400241100081C110008024B13B1024800F030
:1010040005B87047000000001D10000800230146C9
:101014001A46184600F01AB838B5084B084D5B1B41
:101024009C1007D0043B1D44013C55F804399847F3
:10103400002CF9D1BDE8384000F054B8281100085C
:1010440024110008704700BF704700BF2DE9F04726
:10105400DFF880A00646DAF8000098460F4691466D
:10106400FFF7F0FF1A4B1B68D3F8484124B36568B7
:101074001F2D26DC5EB96B1C0235DAF800006360B4
:1010840044F82570FFF7E0FF0020BDE8F087012356
:1010940004EB8501C1F88890D4F88821AB401A4349
:1010A400022EC4F88821C1F80881E4D1D4F88C2137
:1010B4001343C4F88C31DEE703F5A674C3F8484142
:1010C400D5E7DAF80000FFF7BFFF4FF0FF30DCE7A9
:1010D4001811000838040020F8B500BFF8BC08BC9B
:1010E4009E467047F8B500BFF8BC08BC9E467047E2
:1010F40000000000000000000102030406070809C4
:1011040002030405060708090A0B0C0D0E0F101044
:081114000000000010000020A3
:08111C00FD0F000809020008A4
:04112400E5010008D9
:10112800010000000024F40001000000100000008D
:1011380000000000FC02002064030020CC03002013
:101148000000000000000000000000000000000097
:101158000000000000000000000000000000000087
:101168000000000000000000000000000000000077
:101178000000000000000000000000000000000067
:101188000000000000000000000000000000000057
:101198000000000000000000000000000000000047
:1011A8000000000000000000000000000000000037
:1011B8000000000000000000000000000000000027
:1011C8000000000000000000000000000000000017
:1011D8000000000000000000010000000000000006
:1011E8000E33CDAB34126DE6ECDE05000B000000CB
:1011F80000000000000000000000000000000000E7
:1012080000000000000000000000000000000000D6
:1012180000000000000000000000000000000000C6
:1012280000000000000000000000000000000000B6
:0C155800000000000000000068040020FB
:0400000508000F6977
:00000001FF
