:020000040800F2
:10000000000001206D0E00080D0400080F04000818
:100010001104000813040008150400080000000083
:1000200000000000000000000000000017040008AD
:1000300019040008000000001B0400081D0400084B
:10004000B50E0008B50E0008B50E0008B50E000884
:10005000B50E0008B50E0008B50E0008B50E000874
:10006000B50E0008B50E0008B50E0008B50E000864
:10007000B50E0008B50E0008B50E0008B50E000854
:10008000B50E0008B50E0008B50E0008B50E000844
:10009000B50E0008B50E0008B50E0008B50E000834
:1000A000B50E0008B50E0008B50E0008B50E000824
:1000B000B50E0008B50E0008B50E0008B50E000814
:1000C000B50E0008B50E0008B50E0008B50E000804
:1000D000B50E0008B50E0008B50E0008B50E0008F4
:1000E000B50E0008B50E0008B50E0008B50E0008E4
:1000F000B50E0008B50E0008B50E0008B50E0008D4
:10010000B50E0008B50E0008B50E0008B50E0008C3
:10011000B50E0008B50E0008B50E0008B50E0008B3
:10012000B50E0008B50E0008B50E0008B50E0008A3
:1001300000000000000000000000000000000000BF
:1001400000000000000000000000000000000000AF
:10015000000000000000000000000000000000009F
:10016000000000000000000000000000000000008F
:10017000000000000000000000000000000000007F
:10018000000000000000000000000000000000006F
:10019000000000000000000000000000000000005F
:1001A000000000000000000000000000000000004F
:1001B000000000000000000000000000000000003F
:1001C000000000000000000000000000000000002F
:1001D000000000000000000000000000000000001F
:0401E0005FF8E0F1F3
:1001E40010B5054C237833B9044B13B10448AFF36D
:1001F40000800123237010BD3C0400200000000097
:10020400E00F000808B5034B1BB103490348AFF3E3
:10021400008008BD0000000040040020E00F00083A
:1002240030B589B0002404940594069407941C4BBB
:100234009A6942F040029A619A6902F0400201927E
:10024400019A9A6942F004029A619A6902F00402DE
:100254000292029A9A6942F008029A619B6903F039
:1002640008030393039B0F4D22462021284600F0E8
:10027400B6FA10230493059406940DEB03010A487F
:1002840000F08AF9202304930123059306940223A2
:10029400079304A9284600F07FF909B030BD00BFD8
:1002A40000100240000C01400018014008B501286C
:1002B40005D00F4B1B78012B05D0002008BD0C4B3B
:1002C40001221A70F5E710210A4800F081FA01288A
:1002D400F3D10A2000F0F0F8054B00221A70102127
:1002E400044800F075FA0128E8D00020E6E700BFD2
:1002F400000000200018014008B50748074B0360C0
:10030400042343604FF4FA73836000F077FA00B972
:1003140008BD00F055F8FBE7580400200030004009
:1003240030B591B0002409940B9401940294039481
:1003340004940594092306934FF480330793089497
:1003440001220A920C9202250D950E934FF4E013AC
:100354000F9306A800F094FA0F23019302950394D7
:100364004FF4806304930594294601A800F0C6FC69
:1003740011B030BD08B500F07BF8FFF7D1FFFFF7EF
:100384004FFFFFF7B9FF642000F096F80122202107
:10039400094800F024FA02E00A2000F08DF8012058
:1003A400FFF784FF0128F7D1044800F04CFA20211C
:1003B400014800F01AFAEFE7000C0140580400204D
:1003C4007047000082B00E4B9A6942F001029A61B4
:1003D4009A6902F001020092009ADA6942F08052AE
:1003E400DA61DB6903F080530193019B054A53688A
:1003F40023F0E06343F00073536002B0704700BF22
:1004040000100240000001407047FEE7FEE7FEE7EF
:10041400FEE770477047704708B500F03BF808BD29
:100424007047000010B504460E4B18784FF47A73E9
:10043400B3FBF0F30C4A1068B0FBF3F000F096F84D
:1004440068B90F2C01D901200AE0002221464FF09F
:10045400FF3000F057F8054B1C60002000E001203D
:1004640010BD00BF08000020040000200C00002084
:1004740008B5074A136843F010031360032000F023
:100484002FF80020FFF7CEFFFFF79CFF002008BDE8
:1004940000200240034A1168034B1B780B4413608D
:1004A400704700BF6404002008000020014B186856
:1004B400704700BF6404002038B50446FFF7F6FF18
:1004C4000546B4F1FF3F02D0044B1B781C44FFF7F0
:1004D400EDFF401BA042FAD338BD00BF0800002046
:1004E400074AD36823F4E0631B041B0C000200F4E6
:1004F400E060034343F0BF6343F40033D3607047C9
:1005040000ED00E030B4174BDB68C3F30223C3F102
:100514000704042C28BF04241D1D062D18D9033BF1
:100524004FF0FF3505FA04F421EA0401994005FA75
:1005340003F322EA0303194300280BDB0901C9B2C0
:1005440000F1604000F5614080F8001330BC704752
:100554000023E5E700F00F000901C9B2024B19546A
:10056400F4E700BF00ED00E014ED00E00138B0F165
:10057400807F0AD2064B5860064AF02182F8231085
:100584000020986007221A6070470120704700BF5E
:1005940010E000E000ED00E0F0B482B000252C464D
:1005A400ABE0854FBB4210D007D9844FBB420CD07F
:1005B40007F58037BB4208D013E0A7F58017BB428C
:1005C40003D007F57027BB4207D18B68002B60D09E
:1005D400012B59D04261082503E0A7F58017BB42DF
:1005E400F3D0FF2E57D88446FF2E57D8A200DCF84C
:1005F40000300F27974023EA070305FA02F213435A
:10060400CCF800304B6813F0805F75D06C4B9A695E
:1006140042F001029A619B6903F001030193019B7B
:10062400A208971C674B53F827C004F003039F00EC
:100634000F23BB402CEA030C634B984234D003F5E0
:100644008063984200F0948003F58063984200F040
:10065400918003F58063984200F08E8003F58063F7
:10066400984200F08B8003F5806398421AD00623E9
:100674001BE0CD68B5E7CD680435B2E7CD68083531
:10068400AFE7CD680C35ACE702610825A9E7002582
:10069400A7E70425A5E700F1040CA5E7A4F10802E7
:1006A4009200A4E7052300E00023BB4043EA0C03C7
:1006B4000232444F47F822304B6813F4803F5FD036
:1006C400424A1368334313604B6813F4003F5DD010
:1006D4003E4A5368334353604B6813F4801F5BD026
:1006E4003A4A9368334393604B6813F4001F59D01C
:1006F400364AD3681E43D66001340B6833FA04F2D9
:1007040056D00122A24003EA020632EA0303F3D1DF
:100714004B68122B3FF645AF122B3FF662AF01A791
:1007240057F823F0CF050008770600088106000873
:1007340093060008E7050008E7050008E705000838
:10074400E7050008E7050008E7050008E7050008D5
:10075400E7050008E7050008E7050008E7050008C5
:10076400E7050008E70500087B060008870600087F
:1007740001239AE7022398E7032396E7042394E7E7
:10078400124A136823EA060313609DE70F4A53686D
:1007940023EA060353609FE70C4A936823EA06039F
:1007A4009360A1E7094AD36823EA0606D660A3E763
:1007B40002B0F0BC704700BF0000221000003110EE
:1007C4000010024000000140000801400004014004
:1007D4008368194201D001207047002070470AB194
:1007E40001617047090401617047C36801EA0302AB
:1007F40021EA030141EA02410161704708B338B5B7
:10080400044603684CF6CC421A60036845F255521C
:100814001A60036842685A60036882689A60FFF746
:1008240045FE05462368DA6832B1FFF73FFE401BF8
:100834002628F7D9032003E04AF6AA221A600020EA
:1008440038BD0120704703684AF6AA221A600020C6
:100854007047000082B0084B1B68084AA2FB0323C0
:100864005B0A00FB03F3019300BF019B5A1E019234
:10087400002BF9D102B0704704000020D34D621060
:10088400002800F0F18170B582B00446036813F0CB
:10089400010F2CD0AA4B5B6803F00C03042B1DD072
:1008A400A74B5B6803F00C03082B12D06368B3F505
:1008B400803F41D0002B55D103F1804303F504332D
:1008C4001A6822F480321A601A6822F480221A60AC
:1008D40037E09B4B5B6813F4803FE7D0984B1B6871
:1008E40013F4003F03D06368002B00F0BF8123683A
:1008F40013F0020F75D0924B5B6813F00C0F5FD0AE
:100904008F4B5B6803F00C03082B54D02369002B36
:1009140000F089808B4B01221A60FFF7C7FD054662
:10092400874B1B6813F0020F74D1FFF7BFFD401B08
:100934000228F5D903209EE1814A136843F48033E9
:100944001360636843B3FFF7B1FD05467C4B1B6836
:1009540013F4003FCBD1FFF7A9FD401B6428F5D960
:10096400032088E1B3F5A02F09D0754B1A6822F44F
:1009740080321A601A6822F480221A60E1E703F1D7
:100984008043A3F53C331A6842F480221A601A6843
:1009940042F480321A60D4E7FFF788FD0546684BBD
:1009A4001B6813F4003FA2D0FFF780FD401B6428AE
:1009B400F5D903205FE1624B5B6813F4803FA5D156
:1009C4005F4B1B6813F0020F03D02369012B40F027
:1009D4004F815B4A136823F0F803616943EAC1035A
:1009E4001360236813F0080F32D0A369002B45D09D
:1009F400554B01221A60FFF759FD0546504B5B6ABF
:100A040013F0020F21D1FFF751FD401B0228F5D945
:100A1400032030E14A4A136823F0F803616943EA8A
:100A2400C1031360DDE7474B00221A60FFF73EFD68
:100A34000546434B1B6813F0020FD2D0FFF736FD77
:100A4400401B0228F5D9032015E10120FFF702FF1E
:100A5400236813F0040F00F09780394BDB6913F01F
:100A6400805F1DD1364BDA6942F08052DA61DB696E
:100A740003F080530193019B012512E0324B0022C5
:100A84001A60FFF713FD05462D4B5B6A13F0020F46
:100A9400DED0FFF70BFD401B0228F5D90320EAE066
:100AA40000252A4B1B6813F4807F11D0E368012BC7
:100AB40022D0002B38D103F1804303F504331A6AA2
:100AC40022F001021A621A6A22F004021A6218E081
:100AD4001E4A136843F480731360FFF7E7FC06466D
:100AE4001A4B1B6813F4807FE0D1FFF7DFFC801BF7
:100AF4006428F5D90320BEE0114A136A43F00103C8
:100B04001362E36873B3FFF7D1FC06460C4B1B6A10
:100B140013F0020F37D1FFF7C9FC801B41F2883371
:100B24009842F3D90320A6E0052B11D0044B1A6A8E
:100B340022F001021A621A6A22F004021A62E0E741
:100B44000010024000004242800442420070004013
:100B54004D4B1A6A42F004021A621A6A42F0010208
:100B64001A62CEE7FFF7A2FC0646474B1B6A13F056
:100B7400020F08D0FFF79AFC801B41F28833984299
:100B8400F3D9032077E0E5B9E369002B72D03E4A3C
:100B9400526802F00C02082A56D0022B17D03B4BA5
:100BA40000221A60FFF782FC0446374B1B6813F0DF
:100BB400007F47D0FFF77AFC001B0228F5D90320F9
:100BC40059E0314AD36923F08053D361DCE72F4BDA
:100BD40000221A60FFF76AFC05462B4B1B6813F0D2
:100BE400007F06D0FFF762FC401B0228F5D90320E2
:100BF40041E0236AB3F5803F1AD023494B6823F4BC
:100C04007413226A606A024313434B601F4B012230
:100C14001A60FFF74BFC04461B4B1B6813F0007F64
:100C24000ED1FFF743FC001B0228F5D9032022E074
:100C3400154A536823F40033A1680B435360DCE77F
:100C4400002018E0002016E0012B16D00E4B5B6844
:100C540003F48031226A914211D103F47013626A61
:100C640093420ED1002006E001207047012002E0EB
:100C7400012000E0002002B070BD0120FBE701204C
:100C8400F9E70120F7E700BF00100240600042428C
:100C940086B0164B0FCB0DF1180C0CE90F0040F287
:100CA4000123ADF80430124B5B6803F00C02082AF0
:100CB40002D0104806B07047C3F38342624412F86E
:100CC400102C13F4803F0CD0094B5B68C3F34043F2
:100CD400634413F8143C074800FB02F0B0FBF3F044
:100CE400E8E7054800FB02F0E4E700BF081000084D
:100CF4000010024000127A0000093D00002800F0B4
:100D0400A08070B50D460446524B1B6803F00703E0
:100D14008B420BD24F4A136823F007030B43136033
:100D2400136803F007038B4240F08D80236813F0AF
:100D3400020F17D013F0040F04D0474A536843F44A
:100D4400E0635360236813F0080F04D0424A5368E9
:100D540043F460535360404A536823F0F003A1689E
:100D64000B435360236813F0010F31D06368012BE8
:100D740020D0022B25D0384A126812F0020F64D01A
:100D840035494A6822F0030213434B60FFF78EFB98
:100D94000646314B5B6803F00C036268B3EB820FC9
:100DA40016D0FFF783FB801B41F288339842F0D9B9
:100DB400032045E0284A126812F4003FE0D10120E4
:100DC4003EE0254A126812F0007FD9D1012037E0B5
:100DD400204B1B6803F00703AB420AD91D4A136872
:100DE40023F007032B431360136803F00703AB429C
:100DF4002DD1236813F0040F06D0174A536823F447
:100E0400E063E1680B435360236813F0080F07D0D5
:100E1400114A536823F46053216943EAC1035360C0
:100E2400FFF736FF0C4B5B68C3F303130B4AD35C29
:100E3400D8400B4B18600B4B1868FFF7F3FA0020EF
:100E440070BD012070470120FAE70120F8E7012076
:100E5400F6E700BF0020024000100240F80F00082F
:100E6400040000200C000020002103E00B4B5B5821
:100E7400435004310A480B4B42189A42F6D30A4AAB
:100E840002E0002342F8043B084B9A42F9D3FFF7EF
:100E9400C7FA00F00FF8FFF76DFA70472C1000083E
:100EA400000000203C0400203C0400208C040020AE
:100EB400FEE7000070B50D4E0D4D761BB61006D042
:100EC400002455F8043B01349847A642F9D1094E51
:100ED400094D00F083F8761BB61006D0002455F8AF
:100EE400043B01349847A642F9D170BD2010000894
:100EF400201000082810000820100008024B13B12D
:100F0400024800F005B8704700000000210F0008F7
:100F1400002301461A46184600F01AB838B5084BA3
:100F2400084D5B1B9C1007D0043B1D44013C55F845
:100F340004399847002CF9D1BDE8384000F054B882
:100F44002C10000828100008704700BF704700BF2D
:100F54002DE9F047DFF880A00646DAF8000098464D
:100F64000F469146FFF7F0FF1A4B1B68D3F8484130
:100F740024B365681F2D26DC5EB96B1C0235DAF8D4
:100F84000000636044F82570FFF7E0FF0020BDE82F
:100F9400F087012304EB8501C1F88890D4F88821F7
:100FA400AB401A43022EC4F88821C1F80881E4D169
:100FB400D4F88C211343C4F88C31DEE703F5A6740E
:100FC400C3F84841D5E7DAF80000FFF7BFFF4FF058
:100FD400FF30DCE71C10000838040020F8B500BF1F
:100FE400F8BC08BC9E467047F8B500BFF8BC08BC06
:040FF4009E4670475E
:100FF80000000000000000000102030406070809C1
:1010080002030405060708090A0B0C0D0E0F101041
:081018000000000010000020A0
:08102000010F0008090200089D
:04102800E5010008D6
:10102C00010000000024F40001000000100000008A
:10103C0000000000FC02002064030020CC03002010
:10104C000000000000000000000000000000000094
:10105C000000000000000000000000000000000084
:10106C000000000000000000000000000000000074
:10107C000000000000000000000000000000000064
:10108C000000000000000000000000000000000054
:10109C000000000000000000000000000000000044
:1010AC000000000000000000000000000000000034
:1010BC000000000000000000000000000000000024
:1010CC000000000000000000000000000000000014
:1010DC000000000000000000010000000000000003
:1010EC000E33CDAB34126DE6ECDE05000B000000C8
:1010FC0000000000000000000000000000000000E4
:10110C0000000000000000000000000000000000D3
:10111C0000000000000000000000000000000000C3
:10112C0000000000000000000000000000000000B3
:0C145C00000000000000000068040020F8
:0400000508000E6D74
:00000001FF
